:040000008031202803
:100008007E14803120007F08F000000000002000EE
:10001800111C14288031E1208031200011101B2888
:100028002700931E1B288031FA202700931270089E
:100038002000FF007E10090080312228F701F80116
:10004800F9017E102000803129288031AF208031CD
:10005800031020000E1E03140030093DF100F201C8
:1000680003108E1D03140030093DF300F401F3352D
:10007800F40D71087307F5007208743DF6007508F1
:10008800FA007608FB007728791C8A287910153041
:10009800F2004B30F100BE30890B5028F10B50288C
:1000A800F20B502800326728791C8A2879101530FD
:1000B800F2004B30F100BE30890B6028F10B60284C
:1000C800F20B60280032270093128B158A28031040
:1000D80020008C1E03140318742822000E108A288E
:1000E80022000E148A287B08003A03197C287428F9
:1000F8007A08003A03194828013A03195828033A9C
:1001080003196B28013A03197428742822000C0C6F
:10011800890C0139F100031020000E1D0314003072
:10012800093D710603192C2803100E1D0314031C26
:10013800A02822000C15A22822000C111530F2006C
:100148004B30F100BE30890BA728F10BA728F20B22
:10015800A72800322C2821001908873970389900FF
:10016800FC309905200018143F309805981130305C
:10017800980418159913210011140B178B178B1558
:1001880027009212911621008C160E150E100C11D4
:100198000C120E168E1523000E110E100C110C12D7
:1001A8008E112100951324008C160E150E168E152F
:1001B80022000E140C110C1608000130F70700304D
:1001C800F83D00307802103003197702031C08004C
:1001D800031022000C1E0314031CF52822000C1621
:1001E800F72822000C12F701F80108007A087B04AE
:1001F800031D012920000E1905297A037B04031D1C
:100208000800031022000E1C0314031C0E292200F0
:0E0218000E14102922000E1079148B1108000C
:020000040001F9
:04000E00E4C9FFDB67
:00000001FF
